:020000040800F2
:1000000030A400246D04000897400008E13D00087A
:1000100095400008C7060008656800080000000059
:10002000000000000000000000000000AD03000818
:100030004D09000800000000090400086D44000894
:100040008704000887040008870400088704000864
:100050008704000887040008870400088704000854
:1000600087040008870400088704000811070008B7
:100070001D070008290700088704000887040008F6
:100080008704000887040008870400088704000824
:100090008704000887040008870400088704000814
:1000A0008704000887040008870400088704000804
:1000B00087040008870400088704000887040008F4
:1000C00087040008870400088704000887040008E4
:1000D00087040008870400088704000887040008D4
:1000E0008704000887040008000000008704000857
:1000F00087040008870400088704000887040008B4
:1001000087040008870400088704000887040008A3
:100110008704000887040008870400088704000893
:100120008704000887040008870400088704000883
:100130008704000887040008870400088704000873
:1001400000000000000000000000000000000000AF
:100150008704000887040008870400088704000853
:100160008704000887040008870400088704000843
:100170008704000899400008870400080000000078
:100180008704000887040008870400088704000823
:100190008704000887040008870400088704000813
:1001A0008704000887040008870400080000000096
:1001B00087040008870400088704000887040008F3
:1001C0008704000887040008000000000000000009
:1001D000000000000000000087040008000000008C
:1001E000000000000000000000000000000000000F
:1001F00000000000000000008704000887040008D9
:100200008704000887040008000000008704000835
:100210008704000887040008870400088704000892
:1002200087040008000000008704000800000000A8
:100230008704000887040008000000008704000805
:100240008704000887040008870400088704000862
:100250008704000887040008870400088704000852
:100260008704000887040008870400088704000842
:1002700087040008870400088704000800000000C5
:100280008704000887040008870400088704000822
:100290000000000087040008870400080000000038
:1002A0000000000087040008870400088704000895
:1002B00087040008870400088704000887040008F2
:1002C00087040008F14500088704000800F002F8E0
:1002D00000F05CF80AA090E8000C82448344AAF184
:1002E0000107DA4501D100F051F8AFF2090EBAE882
:1002F0000F0013F0010F18BFFB1A43F0010318475A
:1003000078700000987000000A444FF0000C10F85C
:10031000013B13F0070408BF10F8014B1D1108BF83
:1003200010F8015B641E05D010F8016B641E01F823
:10033000016BF9D113F0080F1EBF10F8014BAD1C73
:100340000C1B09D16D1E58BF01F801CBFAD505E091
:1003500014F8016B01F8016B6D1EF9D59142D6D3EB
:10036000704700000023002400250026103A28BF13
:1003700078C1FBD8520728BF30C148BF0B60704717
:100380001FB506F0A3FF1FBD10B510BD00F061F949
:100390001146FFF7F5FF06F07FFA00F07FF903B48E
:1003A000FFF7F2FF03BC00F087F900002C4B19683F
:1003B0000868B0E8F04F80F30988BFF36F8F4FF003
:1003C000000080F3118870470000000008480068B2
:1003D000006880F308884FF0000080F3148862B64C
:1003E00061B6BFF34F8FBFF36F8F00DF00BF00BF59
:1003F00008ED00E0DFF80C00016841F470010160D5
:10040000704700BF88ED00E0EFF30980BFF36F8F06
:10041000134B1A681EF0100F08BF20ED108A20E958
:10042000F04F106009B44FF0500080F31188BFF313
:100430004F8FBFF36F8F06F0ADFD4FF0000080F3DC
:10044000118809BC19680868B0E8F04F1EF0100F59
:1004500008BFB0EC108A80F30988BFF36F8F704734
:1004600020000024EFF30580704700000948804712
:1004700009480047FEE7FEE7FEE7FEE7FEE7FEE786
:10048000FEE7FEE7FEE7FEE704480549054A064B9E
:100490007047000031450008CD020008309A002462
:1004A00030A40024309C0024309C002453EA020C29
:1004B00000F069802DE9F04B4FF00006002B1FBFC4
:1004C000B3FA83F503FA05F424FA05F65E4012BF89
:1004D0001643B2FA82F502FA05F4C5F120051EBFF3
:1004E00022FA05FC44EA0C04203556EA044C4FEA93
:1004F000144418BF641C4FF000084FF000099042EC
:1005000071EB030C39D3002919BFB1FA81F701FA55
:1005100007F6B0FA80F700FA07F6C7F120071EBF0A
:1005200020FA07FC46EA0C062037B6FBF4FCA7EBE2
:100530000507103F07F01F0BCBF120060CFA0BFB51
:100540002CFA06F644BFB3460026202FA4BF5E4611
:100550004FF0000B5BEA060C08BF4FF0010B19EBE4
:100560000B09ABFB027C48EB0608C01B06FB02CC68
:100570000BFB03CC71EB0C01C1E70B460246414675
:100580004846BDE8F08B13B54FF000004FF0000176
:10059000AFF30080BDE81C40704710B5203AC0F0B2
:1005A0000B80B1E81850203AA0E81850B1E8185074
:1005B000A0E81850BFF4F5AF5FEA027C24BFB1E8B1
:1005C0001850A0E8185044BF18C918C0BDE8104022
:1005D0005FEA827C24BF51F8043B40F8043B08BF2B
:1005E0007047D20728BF31F8023B48BF11F8012BF2
:1005F00028BF20F8023B48BF00F8012B70474FF09E
:10060000000200B5134694469646203922BFA0E862
:100610000C50A0E80C50B1F12001BFF4F7AF09076E
:1006200028BFA0E80C5048BF0CC05DF804EB89005F
:1006300028BF40F8042B08BF704748BF20F8022BA2
:1006400011F0804F18BF00F8012B704770477047BA
:100650007047754600F02CF8AE46050069465346D3
:1006600020F00700854618B020B5FFF70DFFBDE864
:1006700020404FF000064FF000074FF000084FF009
:10068000000B21F00701AC46ACE8C009ACE8C0099A
:10069000ACE8C009ACE8C0098D46704710B5044607
:1006A000AFF300802046BDE81040FFF778BE0000A1
:1006B00000487047CC99002401491820ABBEFEE7E2
:1006C000260002007047FEE70020704700207047B8
:1006D00005490022054810B504F026FD04490348E9
:1006E00004F015FD002010BDC88A0024EC7D002414
:1006F000C88200240146044810B504F008FD0248F1
:1007000004F0DEFC002010BDEC7D002400207047CA
:10071000014800F01FB9000048030024014800F020
:1007200019B90000C0030024014800F013B900000B
:1007300038040024294A016891423AD0274A1832E5
:10074000914236D0254A3032914232D0234A483243
:1007500091422ED0214A603291422AD01F4A7832EB
:10076000914226D01D4A9032914222D01B4AA83293
:1007700091421ED01A4A91421BD0194A1832914216
:1007800017D0174A3032914213D0154A483291425D
:100790000FD0134A603291420BD0114A7832914205
:1007A00007D00F4A9032914203D00D4AA8329142AD
:1007B00011D1CAB21823103AB2FBF3F26FF3090158
:1007C000032A02F00703074AD25CC26500D9091D5B
:1007D00081650846704721F0FF01F9E710000240EB
:1007E000100402401473000830B5224A0123016846
:1007F0009142CAB21BD01F4C1434A14217D01D4CD9
:100800002834A14213D01B4C3C34A1420FD0194CC8
:100810005034A1420BD0174C6434A14207D0154C80
:100820007834A14203D0134C8C34A1420CD1142152
:10083000114C083AB2FBF1F10F4A803201F01F056A
:1008400004EB8101AB4010E00C4D1824103A0D442C
:10085000B2FBF4F1A82D00D80831094A01F01F04B9
:1008600002EB8101064AA3408032603080E80E002E
:1008700030BD00000854025800580258F0FBFDBF7C
:100880000008024010B50279531E072B2DD8174CD3
:100890000168A1421BD0154C1434A14217D0134C4F
:1008A0002834A14213D0114C3C34A1420FD00F4C3C
:1008B0005034A1420BD00D4C6434A14207D00B4CF4
:1008C0007834A14203D0094C8C34A14203D10849A9
:1008D000074C443102E00749064C443104EB8202E4
:1008E000C0E91B2101219940416710BD08540258FD
:1008F000FC580258FC08024010B583694FF0C074E0
:10090000826A0146002053B1B3F5005F15D072B181
:10091000012A0CD0022A0AD0032A09D104E01AB114
:10092000012A06D0022A03D1C96AC90100D50120D3
:1009300010BDC96AA142FAD010BD002AF7D0012A21
:10094000F2D0022AF3D0032AF3D010BD704772B65A
:10095000FEE700002DE9FC5F0446F74E0020DFF8BB
:10096000D88300904FF41652F44808F11808A56D8A
:10097000DFF8C493DFF8C0A3016809F130092068EB
:100980000AF1480AB1FBF2F1B04201912F68D5F8A3
:1009900000C0DFF8ACB335D04146884232D048457C
:1009A00030D050452ED058452CD0E54918318842DA
:1009B00028D0E3493031884224D0E1494831884287
:1009C00020D0E04988421DD0DE491831884219D034
:1009D000DC493031884215D0DA494831884211D09B
:1009E000DFF860E30EF1600E70450BD0D54A783227
:1009F000904207D0D34B9033984203D0D149A831CD
:100A000088427DD194F85C20082102F01F0201FA8F
:100A100002F23A424AD0B04232D0404530D0484546
:100A20002ED050452CD058452AD0C54A1832904275
:100A300026D0C34A3032904222D0C14A4832904236
:100A40001ED0C04A90421BD0BE4A1832904217D0E6
:100A5000BC4A3032904213D0BA4A483290420FD04A
:100A6000B84A603290420BD0B64A7832904207D0F2
:100A7000B44A9032904203D0B24AA832904203D195
:100A8000026802F0040202E0026802F008026AB1A1
:100A9000026822F00402026094F85C0000F01F007B
:100AA0008140A960606D40F00100606594F85C00D1
:100AB000012100F01F008140394240D02068B0423F
:100AC00034D0404532D0484530D050452ED05845DE
:100AD0002CD09B4A1832904228D0994A303290420A
:100AE00024D0974A4832904220D0964A90421DD056
:100AF000944A1832904219D0924A3032904200E023
:100B0000AFE113D08F4A483290420FD08D4A603205
:100B100090420BD08B4A7832904207D0894A90326B
:100B2000904203D0874AA83290427DD1406910F0AC
:100B3000800F04D0A960606D40F00200606594F8F9
:100B40005C00042100F01F00814039423ED0206843
:100B5000B04232D0404530D048452ED050452CD000
:100B600058452AD0764A1832904226D0744A3032FC
:100B7000904222D0724A483290421ED0714A90422E
:100B80001BD0704A1832904217D06E4A30329042D1
:100B900013D06C4A483290420FD06A4A6032904279
:100BA0000BD0684A7832904207D0664A9032904221
:100BB00003D0644AA83290424ED1006810F0020F70
:100BC00004D0A960606D40F00400606594F85C009A
:100BD000102100F01F008140394258D02068B042F7
:100BE00034D0404532D0484530D050452ED05845BD
:100BF0002CD0534A1832904228D0514A3032904279
:100C000024D04F4A4832904220D04E4A90421DD0C4
:100C10004C4A1832904219D04A4A3032904215D08C
:100C2000484A4832904200E014E00FD0454A603212
:100C300090420BD0434A7832904207D0414A9032DA
:100C4000904203D03F4AA832904207D1006800F09A
:100C5000080006E0006872E70068B7E7006800F087
:100C60000400A0B1A96020680168490304D50068A8
:100C7000000308D5A16C07E00168C90503D4016829
:100C800021F008010160216C09B12046884794F8E1
:100C90005C00202100F01F008140394279D020689B
:100CA000B04232D0404530D048452ED050452CD0AF
:100CB00058452AD0224A1832904226D0204A303253
:100CC000904222D01E4A483290421ED01D4A904285
:100CD0001BD01C4A1832904217D01A4A3032904228
:100CE00013D0184A483290420FD0164A60329042D0
:100CF0000BD0144A7832904207D0124A9032904278
:100D000003D0104AA832904203D1006800F01000CE
:100D100002E0006800F00200B0B3A96094F835006A
:100D20000428206801680FD049037ED500680003BD
:100D30002BD4616C2AE0000010000240180000244F
:100D4000700002401004024021F01601016020688A
:100D5000416921F080014161206C08B9A06C20B18B
:100D60002068016821F00801016094F85C303F219F
:100D7000012003F01F0300229940A96084F8350088
:100D800084F83420216D65E003E0E16B09B1204671
:100D90008847606D00287DD0606DC00759D02068FD
:100DA000042184F83510B0422BD0404529D0484565
:100DB00027D0504525D0584523D09D49884220D082
:100DC0009B49183188421CD099493031884218D04B
:100DD0009849884215D097491831884211D09549D1
:100DE000303188420DD093494831884209D0914929
:100DF0006031884205D08F497831884201D08D49D1
:100E00009031016821F00101016020680099019A88
:100E1000491C0091914202D80168C907F6D10068C7
:100E2000C00710D003200FE0FFE70168C905ACD46C
:100E300003680121002223F01003036084F83510B9
:100E400084F83420A1E7012084F83500002084F8DC
:100E50003400E16C00291DD002B02046BDE8F05FEF
:100E60000847754988421DD073491431884219D00A
:100E700071492831884215D06F493C31884211D0E0
:100E80006D49503188420DD06B496431884209D098
:100E9000694900E084E07831884203D066498C31AA
:100EA00088427DD194F85C800427016808F01F080F
:100EB00007FA08F717EA0C0F009746D04F0744D5FA
:100EC00000980F04686003D5C8033CD4A16CC1E747
:100ED000880638D42068B0422DD055496039884200
:100EE00029D0484527D0504525D0584523D05049D2
:100EF000884220D04E49183188421CD04C493031AC
:100F0000884218D04B49884215D04A491831884246
:100F100011D04849303188420DD046494831884285
:100F200009D0704507D0904205D0984203D041497E
:100F3000A831884203D1016821F0080102E001686C
:100F400021F004010160216C84E7022707FA08F709
:100F500017EA0C0F00974ED08F074CD500980F045E
:100F6000686003D5C80344D4616C73E7880640D435
:100F70002068B0422FD02E49603988422BD0484596
:100F800029D0504527D0584525D02949884222D01C
:100F90002749183188421ED025493031884200E067
:100FA00044E018D02349884215D02249183188429C
:100FB00011D02049303188420DD01E494831884235
:100FC00009D0704507D0904205D0984203D0194906
:100FD000A831884203D1016821F0140102E00168C0
:100FE00021F00A010160012184F83510002084F805
:100FF0003400E16B2EE7082202FA08F212EA0C0F25
:1010000014D0090712D5016821F00E01016094F88F
:101010005C100120002201F01F0100FA01F169605B
:10102000606584F8350084F8342012E7BDE8FC9F41
:101030008800024010040240085402582DE9F05F75
:10104000044600F0F9FA002C07467DD0E24E02215A
:1010500020684FF00308DFF884934FF00005DFF8B5
:1010600080A3B042DFF87CB334D0DB4A1832904220
:1010700030D048452ED050452CD058452AD0D94A9A
:101080001832904226D0D74A3032904222D0D54AE8
:10109000483290421ED0D44A90421BD0D24A1832D5
:1010A000904217D0D04A3032904213D0CE4A4832C4
:1010B00090420FD0CC4A603290420BD0CA4A78326C
:1010C000904207D0C84A9032904203D0C64AA83214
:1010D00090427DD184F83510B04284F834502ED03F
:1010E000BD49183188422AD0484528D0504526D0DD
:1010F000584524D0BB491831884220D0B9493031F5
:1011000088421CD0B7494831884218D0B649884235
:1011100015D0B5491831884211D0B34930318842D1
:101120000DD0B1494831884209D0AF496031884279
:1011300005D0AD497831884201D0AB499031016882
:1011400021F00101016008E025E100BF00F074FA20
:10115000C01B052801D920211AE120680068C007BA
:10116000F4D1D4E902032168103418438E4694E880
:101170008410D4E9033809683A4310439B4A40EA93
:101180000C00676918431140103C40EA0800042F26
:1011900040EA010003D1D4E90B121143084361680E
:1011A000A1F12902052A0BD9163A032A08D9083ACF
:1011B000012A05D9083A032A02D97439032901D82A
:1011C00040F48010CEF800002068676A406900E0B3
:1011D00020E0042F20F0070047EA00070DD1D4E9F2
:1011E0000A01074349B12046FFF786FB28B140209A
:1011F0006065012184F83510CDE020684761204604
:10120000FFF798FA94F85C203F2102F01F0291400A
:10121000816055E0764A90421BD0754B143398425A
:1012200017D0734B2833984213D0714B3C339842FC
:101230000FD06F4B503398420BD06D4B64339842B4
:1012400007D06B4B7833984203D0694B8C3398426C
:101250007ED184F8351084F83450664B0168A2685A
:1012600001EA030E402A74D0802A73D05FF0000296
:10127000D4E90378D4E9053142EAD70242EAD80832
:101280005B4AD4E9077C48EAD30848EAD10141EA3D
:10129000D701524241EA1C11142341EA0E010160B8
:1012A00020681044B0FBF3F08000E0652046FFF7B3
:1012B00041FA94F85C20012102F01F029140416044
:1012C0002068B04257D044491831884253D048452D
:1012D00051D050454FD058454DD0424918318842E1
:1012E00049D040493031884245D03E494831884252
:1012F00041D03D4988423ED03B49183188423AD0DE
:1013000039493031884236D037494831884232D065
:101310003549603188422ED03349783188422AD00D
:1013200031499031884226D02F49A831884222D0B5
:101330002F4988421FD02E49143188421BD02C4996
:101340002831884217D02A493C31884213D002E024
:101350001DE017E018E02649503188420BD024499F
:101360006431884207D022497831884203D020492D
:101370008C31884229D12046FFF736FAA0688028B0
:101380000CD00CE0102273E74FF4804270E740214C
:10139000616584F835800120BDE8F09F6560216EAD
:1013A00020790860D4E9190141606068401E07286F
:1013B00008D82046FFF766FAE06E0560D4E91C0104
:1013C000416002E0E566256765670120656584F890
:1013D00035000020E0E7000010000240400002401D
:1013E0005800024070000240100402403F8010FE8E
:1013F000085402580F00FEFF70B5044600F01CF9B7
:101400000546601C02D004480078044400F014F93A
:10141000401BA042FAD370BD0C0000242DE9F84F08
:1014200003247A4D00234FF001094FF0B04B4FF0E9
:101430000F0AE4E009FA03F6324078D00F7907F09A
:101440000307012F01D0022F1AD187684FEA430EFC
:10145000D1F80CC004FA0EF827EA08070CFA0EFCC3
:101460004CEA070CC0F808C0476891F804C0B743BD
:10147000CCF3001C0CFA03FC4CEA070CC0F804C0C7
:101480000E79F643B6070BD0C6684FEA43088F685B
:1014900004FA08FC26EA0C0607FA08F73743C76087
:1014A0000E7906F00306022E12D1DE080F694FEA0C
:1014B000437C00EB8606B646366A4FEADC6C0AFAD5
:1014C0000CF807FA0CF726EA08063743CEF8207026
:1014D0000F7906684FEA430807F0030704FA08FC8F
:1014E00007FA08F726EA0C06374307604E6816F439
:1014F000403F1CD0464E376847F0020737603668D9
:101500009F0706F00206009623F0030606F1B04698
:10151000B6463F0FD6F80864DFF8F8800AFA07FCF1
:10152000404526EA0C0603D14FF0000C3AE065E096
:10153000DFF8E4C0604502D14FF0010C32E0DFF883
:10154000DCC0604502D14FF0020C2BE0DFF8D0C0C8
:10155000604502D14FF0030C24E0DFF8C8C06045BD
:1015600002D14FF0040C1DE0DFF8BCC0604502D191
:101570004FF0050C16E0DFF8B4C0604502D14FF023
:10158000060C0FE0DFF8A8C0604502D14FF0070C51
:1015900008E0DFF8A0C0604502D14FF0090C01E07F
:1015A0004FF00A0C0CFA07FC4CEA060CCEF808C403
:1015B0004F68DBF80060FF0226EA020600D51643FA
:1015C0005F46CBF80060D1F804C0DBF804605FEA46
:1015D0008C2C26EA020600D516437E606E684F68A2
:1015E00026EA0206BF0300D516436E602E684F68D8
:1015F00026EA0206FF0300D516432E605B1C0A682C
:1016000032FA03F67FF416AFBDE8F88F8000005879
:10161000F44402580000025800040258000802581E
:10162000000C02580010025800140258001802580A
:10163000001C0258002402580148806870470000CE
:101640000C000024024881680278114481607047D0
:101650000C000024032010B500F0ACF801F0BEFD32
:101660000F4A104914681368C4F3032203F00F03F0
:101670008A5CC95C02F01F0201F01F01D0400A4AD7
:1016800020FA01F11160094908600F2000F010F8FC
:1016900008B1012010BD00F04DF8002010BD000081
:1016A00018440258447300081C0000241800002449
:1016B00010B5102804468AB02AD200220146A12083
:1016C00000F058F8A12000F047F8154804601548CC
:1016D000016841F080710160006808A900F0807025
:1016E0000990684601F006FD01F066FD0E494000D4
:1016F00000220E4CB0FBF1F10D4840F2E7330460DC
:10170000C0E90332491EC0E9011202F099F810B194
:1017100001200AB010BD064802F0C4F8F9E7000045
:1017200010000024EC44025840420F0000E000404A
:10173000B0040024074882B0016841F00201016052
:10174000006800220F2100F002000090901E02B0FD
:1017500000F010B8F4440258002809DB410900F0F9
:101760001F028900012001F1E0219040C1F8000131
:10177000704700000E4BF0B41B680D46C3F3022304
:10178000C3F10706042E00D90426191D072901D22A
:10179000002300E0DB1E012404FA06F19C40491EF0
:1017A0002940641E994014402143F0BC05F05BB809
:1017B0000CED00E0064900F0070210B54FF6FF04FB
:1017C0000868044B204040EA02201843086010BD1E
:1017D0000CED00E00000FA0501680123C0F8D834E0
:1017E000002280F8CC248869044A40F000608861B7
:1017F000486D10434865002070470000030000104A
:1018000070470068416200207047F0B503685D6A68
:1018100039B19F6A4C1E00204FF4827605EB1745C4
:101820000BE045EA0240986210E0471C06EB80009E
:1018300053F800C0F8B205EB1C45A042F5D34FF4B5
:10184000807000EB810045EA02421A500020F0BD92
:10185000D0F8E00403F057BF01EBC10200EB8202B5
:10186000D0F8E004126A03F0AABE01EBC10200EB5B
:101870008202D0F8E004D2F8602203F0FCBED0F877
:10188000E00403F042BF0A0601F00F0101EBC101C1
:1018900000EB810101D5143101E001F515710068FB
:1018A00004F02CBE01F00F020B0670B502EBC20172
:1018B00004464FF001004FF0000504EB810102D512
:1018C0004875143103E081F8555201F515710A701D
:1018D00094F89424012A08D084F89404206804F031
:1018E0002FFB002084F8945470BD022070BD70B5A9
:1018F0000279044601F00F00904201D9012070BD29
:1019000001F00F024FF000050B0602EBC2014FF091
:10191000010204EB810102D54A75143103E081F81C
:10192000555201F515718D70087094F894040128D2
:1019300008D084F89424206804F06CFC002084F81B
:10194000945470BD022070BD01F00F0101EBC10184
:1019500000EB8100D0F8680270472DE9F04101F0FA
:101960000F0604460D064FF0010006EBC6014FF0CE
:10197000000504EB810102D54875143103E081F8BC
:10198000555201F515714F788A600B710E7007B1D1
:101990004E83022B00D14D7194F89424012A09D072
:1019A00084F89404206804F013FA284684F89454C8
:1019B000BDE8F0810220FBE770B501F00F050024BF
:1019C00005EBC50100EB810101F5187181E81C00F0
:1019D00001F80B4C01F80C5D8379012B00D1CA6131
:1019E0008279006804F06EFC002070BD70B50D4671
:1019F0000179044605F00F00884201D9012070BD2D
:101A000029064FF000064FF0010206D500EBC00199
:101A100004EB81014A75143107E005EBC50104EBC5
:101A2000810181F8556201F515718A70087094F88A
:101A30009404012807D084F89424206804F016FC4C
:101A4000280702D007E0022070BDA17904F29C4271
:101A5000206804F0B3FB002084F8946470BD70B576
:101A600001F00F04002504EBC401012600EB810105
:101A7000203181E82C0001F80B6C01F80C4D8379C2
:101A8000012B00D1CA618279006804F01BFC0020A0
:101A900070BD00002DE9FC5F05680446284604F08F
:101AA000C9FD00287ED1206804F0F0FD002879D01F
:101AB000D5F80808C0F30D20C4F8D404206804F059
:101AC000E5FD800704D52068416901F0020141610C
:101AD000206804F0DBFDC10604F29C40009035D57F
:101AE0002068816921F0100181612F6A07F00F01E0
:101AF000C7F3434001EBC101022804EB810606F560
:101B0000157602D0062812D01BE047F6F070074287
:101B100017D0C7F30A12F1681746284604F0BAFD39
:101B20007169F068394471613844F06009E00099E6
:101B30000822284604F0AEFD7069C7F30A11084474
:101B400070612068816941F010018161206804F0B2
:101B50009DFD00034FF0080B4FF0000A4FF0010904
:101B60007CD52068002604F070FD074674E0F80775
:101B700070D02068F1B204F081FD8046C00707D024
:101B800005EB4611C1F8089B3146204602F08AFA5F
:101B90005FEA087024D505EB4611C1F808BBFA4985
:101BA000206800E03EE2026C00EB461001928A429F
:101BB000D0F8081B05D9090403D54FF40041C0F83B
:101BC000081B204600F001FBEF490198884207D925
:101BD000A079012804D120680121009A04F0EEFACE
:101BE0005FEAC86004D505EB46111020C1F8080B68
:101BF0005FEA88701DD56869000605D5D5F8040828
:101C000040F48061C5F8041806EBC60004EB8000C0
:101C100090F8571200F51570012905D180F803A03E
:101C20002046F1B200F004FA05EB46110220C1F89B
:101C3000080B5FEA886004D505EB46112020C1F847
:101C4000080B5FEA884005D505EB46114FF40050BC
:101C5000C1F8080B7F08761C002F88D1206804F09B
:101C600015FD40036ED5206804F0E8FC0026074609
:101C700066E0F80762D02068F1B204F0EDFC80461F
:101C8000C00723D0D5F8342806F00F0105EB461322
:101C900009FA01F18A43C5F83428C3F80899A079F4
:101CA00001280FD106EBC60004EB8000D0E9072124
:101CB0001144016236B9606A20B920680121009A96
:101CC00004F07CFA2046F1B2FFF7C6FD5FEA087027
:101CD00003D505EB4611C1F808B95FEAC86004D521
:101CE00005EB46111020C1F808095FEA486004D5E9
:101CF00005EB46114020C1F808095FEA887016D547
:101D00003146284604F06BFC06EBC60004EB80006D
:101D1000C17D1430012905D180F803A02046F1B21D
:101D200000F082F905EB46110220C1F808095FEACC
:101D3000086003D53146204602F01AFA7F08761C67
:101D4000002F96D1206804F0A1FC002811DAD5F804
:101D5000040820F00101C5F8041894F8CC04012807
:101D60003BD0204600F016FA2068416901F000419E
:101D70004161206804F08AFC00050BD5D5F80808FD
:101D8000C00702D0204600F049FA2068416901F4FA
:101D900000614161206804F079FC00010AD52068E7
:101DA000416901F00061416194F8CC04E0B1204642
:101DB00000F034FA206804F069FCC00472D5D5F84C
:101DC000040820F00101C5F804182068102104F06F
:101DD00006FC00214FF67F322DE00021204684F8DA
:101DE000CCA4FFF70DFDBFE784F8CC942068406DCC
:101DF0000121C0F38300C4F8D0042046FFF700FDA2
:101E0000D8E700BF05EB4110C0F80829D0F8003929
:101E100023F40013C0F80039C0F8082BD0F8003BB9
:101E200023F40013C0F8003BD0F8003B43F00063FC
:101E3000C0F8003B491C20798842E3D8D5F81C083B
:101E400040F00111C5F81C18E07B68B1D5F8840892
:101E500040F00B01C5F88418D5F8440840F00B0198
:101E60002846C5F844180DE0D5F8140842F22B01B5
:101E70000843C5F81408D5F8100840F00B012846AF
:101E8000C5F81018D0F8000820F4FE61C5F8001855
:101E9000A1792068009A04F091F92068416901F461
:101EA00080514161206804F0F1FB800415D5206861
:101EB00003F0CEFF206804F0B0FBE07101F048F9B8
:101EC000E2790146206804F045FC204600F04CF918
:101ED0002068416901F400514161206804F0D6FB9B
:101EE000000707D5204600F059F92068416901F044
:101EF00008014161206804F0C9FB000616D5A869F5
:101F0000012620F08001A9610DE000BF06EBC600AC
:101F100004EB800090F85702012803D12046F1B26B
:101F2000FFF7B1FC761C2079B042EFD8206804F0AE
:101F3000ADFBC0021FD501264F4614E006EBC601DB
:101F400005EB461004EB8101D0F800090A7E012A56
:101F500008D1002806DAF0B2CF7540F080012046A3
:101F6000FFF791FC761C2079B042E7D820684169E0
:101F700001F480114161206804F088FB800234D5AF
:101F800001204B4629E000000A30544F00EBC0020C
:101F900005EB401104EB8202D1F8001B92F8586265
:101FA000012E19D1002917DA94F8D46401F4803194
:101FB00006F00106B1420FD182F85732A96941F00B
:101FC0008002AA616969090606D4D5F8040840F4BC
:101FD0000070C5F8040803E0401C21798142D5D87F
:101FE0002068416901F400114161206804F04EFB52
:101FF000400007D52046FFF72BFC2068416901F01F
:1020000080414161206804F041FB40070AD5206807
:102010004568680702D52046FFF731FC2068416813
:1020200029434160BDE8FC9FD0F8E00403F0C5BB44
:10203000D0F8E00403F0D5BBF8B5040004D094F860
:102040009504002510B106E00120F8BD204684F873
:10205000945400F057F8032084F89504206804F0A5
:10206000A7F8207C8DF8000094E80F0003F0FEFE36
:102070000226B0BB2068002104F02CFB88BB0020A6
:1020800001270CE000EBC001421C04EB81014F75FD
:102090000D76CD610D624D620875C885D0B221798B
:1020A0008142EFD8002011E000EBC001421C04EB9C
:1020B000810181F8555281F85852C1F85C52C1F83B
:1020C0006052C1F8645281F85402D0B22179814241
:1020D000EAD8207C8DF8000094E80F0003F0B2FFEE
:1020E00010B184F89564AFE7207B657484F895742B
:1020F000012802D12046FFF76FFB206803F094FF10
:102100000020F8BD10B5B0B00446B8216846FEF70F
:1021100076FA1349206888421FD100204FF48021AD
:10212000CDE900108A006846219200F017FA08B144
:10213000FEF70DFC00F0B4F80A48016841F00071A8
:10214000016000680022052100F000702E904D20F3
:10215000FFF710FB4D20FFF7FFFA30B010BD000075
:1021600000000440D844025870B50446C0790125E7
:1021700070B1022801D0FEF7EAFBD4F8E00429464A
:1021800003F09EFBD4F8E004BDE8704003F052BBBE
:102190000025F2E7D0F8E00403F07BBBD0F8E004C0
:1021A00003F081BB10B5044690F8940401280AD0CE
:1021B0000120617484F89404206804F0BAFA0020C5
:1021C00084F8940410BD022010BDD0F8E02400F281
:1021D0009C41104603F080BB10B590F8941404465F
:1021E0000068012909D0012184F89414C1684906C6
:1021F00009D5617B012902D005E0022010BD816B69
:1022000041F480318163206804F0C7F9206803F04D
:10221000FDFE002084F8940410BD000010B50446B3
:10222000D0F8E00403F09AFB2068D0F8001E41F0DB
:102230000101C0F8001EE07A002804D002480168BD
:1022400041F00601016010BD10ED00E0134970B5CA
:102250000A68D243520705D5096801F00701814297
:1022600013D118E00A6822F0070202430A60FFF760
:10227000E3F90A4D4FF47A760446083D07E000BFC3
:10228000FFF7DAF9001BB04201D9012070BD2868C0
:10229000C0438004F4D4002070BD00000C480258F4
:1022A0000248016841F08071016070470C48025893
:1022B00010B500F04DFF05490968054AC1F3021148
:1022C000515C01F01F01C84010BD000020440258BD
:1022D00044730008494930B5484C0B1D0A68143452
:1022E00009681D68246802F00303C5F30012C1F3F6
:1022F0000531C4F3CC04002914FB02F200EE102ACD
:10230000F8EE400A75D03F4A9FED3D1AB7EE000A3D
:102310006BB1DFED3D1A012B01D0022B64D002EE30
:10232000101A1168F8EE422A81EEA22A21E0334CFD
:10233000283C23689B0612D5344B246801EE901A82
:102340001168C4F3C104F8EE612AE34001EE903A4B
:10235000C1F30801F8EE611A81EEA22A0BE001EE4A
:10236000901ADFED2B2A00BFF8EE611A116882EE99
:10237000A12AC1F3080101EE901A1168F8EE611A62
:1023800040EE811A71EE800A62EE200AC1F3462106
:1023900001EE101AB8EE411A31EE001AC0EE811AA1
:1023A000BCEEE11A80ED001A1168C1F3064101EE9E
:1023B000101AB8EE411A31EE001AC0EE811ABCEEC6
:1023C000E11A80ED011A1168C1F3066101EE101ADD
:1023D000B8EE411A31EE000A80EE801ABCEEC10A56
:1023E00080ED020A30BD04E001EE901ADFED092A0B
:1023F000BAE70021016041608160F3E72844025898
:1024000000000039384402580024744A0090D00378
:102410000024744C001BB74B494930B5484C0B1D88
:102420000A681C3409681D68246802F00303C5F3B8
:102430000022C1F30551C4F3CC04002914FB02F2BD
:1024400000EE102AF8EE400A75D03F4A9FED3D1A83
:10245000B7EE000A6BB1DFED3D1A012B01D0022B64
:1024600064D002EE101A1168F8EE422A81EEA22A18
:1024700021E0334C283C23689B0612D5344B24685A
:1024800001EE901A1168C4F3C104F8EE612AE3402A
:1024900001EE903AC1F30801F8EE611A81EEA22A2A
:1024A0000BE001EE901ADFED2B2A00BFF8EE611A67
:1024B000116882EEA12AC1F3080101EE901A116899
:1024C000F8EE611A40EE811A71EE800A62EE200A7F
:1024D000C1F3462101EE101AB8EE411A31EE001A8E
:1024E000C0EE811ABCEEE11A80ED001A1168C1F34A
:1024F000064101EE101AB8EE411A31EE001AC0EE94
:10250000811ABCEEE11A80ED011A1168C1F306616F
:1025100001EE101AB8EE411A31EE000A80EE801A70
:10252000BCEEC10A80ED020A30BD04E001EE901A53
:10253000DFED092ABAE70021016041608160F3E71D
:102540002844025800000039404402580024744ACC
:102550000090D0030024744C001BB74B2DE9FE4FB4
:102560000546DFF800A450F8081B0024FD4FC943BE
:10257000019005F1280026460AF1240A009008017E
:102580001DD4686E50B1B0F5801F0CD0B0F5001F9F
:102590000ED0B0F5401F1ED001240FE0386840F483
:1025A0000030386017E00198022101F033FE03E0AB
:1025B0000098022101F0BEFE04000CD026462888B7
:1025C000C043C00523D4A86D05281ED2DFE800F063
:1025D0000C11161B1B006A6EDAF8001021F4401172
:1025E0001143CAF80010EAE7386840F40030386058
:1025F00009E00198002101F00DFE03E000980021A0
:1026000001F098FE0446C4B100E001242646288863
:10261000DFF85083C04308F12C0840052FD4D5F8CB
:10262000A400B0F5C00F28D010DCB8B1B0F5001F81
:1026300019D0B0F5800F0FD11AE0AA6DDAF80010AA
:1026400021F007011143CAF80010E0E7B0F5000FD0
:1026500013D0B0F5200F10D001240FE0386840F4FB
:102660000030386009E00198002101F0D3FD03E05B
:102670000098002101F05EFE044694B126462888A9
:10268000C043000530D4D5F8A800B0F1407F29D070
:1026900011DCC0B1B0F1807F1AD0B0F1007F10D151
:1026A0001BE0D5F8A420D8F8001021F460011143F4
:1026B000C8F80010E3E7B0F1806F13D0B0F1A06F5D
:1026C00010D001240FE0386840F40030386009E091
:1026D0000198002101F09EFD03E00098002101F027
:1026E00029FE044694B126462868DFF878B2C04334
:1026F0000BF1200B80011FD4E86CD8B110280FD04B
:10270000202812D0302815D0012414E0D5F8A820B4
:10271000D8F8001021F0E0611143C8F80010E3E799
:10272000386840F40030386004E00198022101F07C
:1027300071FD044674B126462888C043C0042BD4DA
:10274000E86DB0F5005F20D00DDCA0B1B0F5805F82
:102750000FD115E0EA6CDBF8001021F030011143D5
:10276000CBF80010E8E7B0F5405F13D0B0F5804F2C
:1027700010D001240FE0386840F40030386009E0E0
:102780000198002101F046FD03E00098002101F0CE
:10279000D1FD04468CB126462888C043800429D444
:1027A000286EB0F5403F23D010DC08B3B0F5803F71
:1027B00014D0B0F5003F0FD115E0EA6DDAF8001043
:1027C00021F4E0411143CAF80010E5E7B0F5802F8D
:1027D0000ED0B0F5A02F0BD001240AE00198012102
:1027E00001F018FD03E00098012101F0A3FD04466B
:1027F00094B126462888C04340042AD4D5F8AC00BA
:10280000B0F1405F23D010DC08B3B0F1805F14D08A
:10281000B0F1005F0FD115E02A6EDAF8001021F454
:10282000E0211143CAF80010E4E7B0F1804F0ED068
:10283000B0F1A04F0BD001240AE00198012101F072
:10284000E9FC03E00098012101F074FD044674B135
:1028500026462888C04300041FD4E86ED8B1B0F1E2
:10286000805F0ED0B0F1005F10D0012414E0D5F8E5
:10287000AC20D8F8001021F0E0411143C8F8001056
:10288000E7E7386840F40030386004E0019801213F
:1028900001F0C0FC044674B126462868C043C0015C
:1028A0001ED4A86CD0B101280ED0022811D0032864
:1028B00014D0012413E0EA6EDAF8001021F0405140
:1028C0001143CAF80010E8E7386840F40030386077
:1028D00004E00198022101F09DFC04466CB12646FB
:1028E0002868C043400255D41F48016841F48071F4
:1028F0000160FEF7A1FE81460EE0AA6CDBF8001035
:1029000021F003011143CBF80010E9E7FEF794FE34
:10291000A0EB090064283BD813480068C005F5D532
:10292000BCBBDFF84090B5F8B01009F14409D9F804
:10293000000001F4407100F44070884211D0D9F8D1
:102940000010D9F8002021F4407142F48032C9F817
:102950000020D9F8002022F48032C9F80020C9F8FC
:10296000001003E02C44025800480258D5F8B0008B
:10297000B0F5807F19D1FEF75FFE029011E000BF35
:10298000FEF75AFE0299411A41F28830814208D975
:10299000032426462878DFF81494C043C00721D0CA
:1029A0003CE0D9F800008007EAD5D5F8B010C1F3B3
:1029B00001200328FE480DD0016821F47C510160FC
:1029C000B5F8B020D9F80010C2F30B021143C9F8D2
:1029D0000010DFE7F74A036802EA111223F47C5182
:1029E0001143ECE7A86F182816D005DCA0B1082821
:1029F00008D0102804D10AE020280DD028280BD0B8
:102A000001240AE00198012101F004FC03E0009890
:102A1000012101F08FFC044664B126462878C043AA
:102A200080071ED4686F062819D2DFE800F0160C64
:102A300011161616AA6FD9F8001021F038011143AB
:102A4000C9F80010EAE70198012101F0E3FB03E077
:102A50000098012101F06EFC04467CB100E00124E5
:102A600026462878C04340071FD4D5F89000062892
:102A700019D2DFE800F0160C111616166A6FD9F895
:102A8000001021F007011143C9F80010E9E701988F
:102A9000012101F0BFFB03E00098012101F04AFC95
:102AA0000446A4B100E0012426462878C0438006ED
:102AB0002BD4D5F88C00B0F1405F24D011DC10B3DA
:102AC000B0F1805F15D0B0F1005F10D116E0D5F8FD
:102AD0009020D8F8001021F007011143C8F8001029
:102AE000E3E7B0F1804F0ED0B0F1A04F0BD001243E
:102AF0000AE00198002101F08DFB03E0009802211B
:102B000001F018FC044694B126462878C0434006DC
:102B10002BD4D5F89800B0F5406F24D011DC10B359
:102B2000B0F5806F15D0B0F5006F10D116E0D5F874
:102B30008C20D9F8001021F0E0411143C9F80010B1
:102B4000E3E7B0F5805F0ED0B0F5A05F0BD00124B5
:102B50000AE00198002101F05DFB03E000980221EA
:102B600001F0E8FB044694B126462878C0430006ED
:102B70002BD4D5F89C00B0F5C04F24D011DC10B395
:102B8000B0F5005F15D0B0F5804F10D116E0D5F844
:102B90009820D8F8001021F4E0511143C8F8001033
:102BA000E3E7B0F5004F0ED0B0F5204F0BD0012475
:102BB0000AE00198002101F02DFB03E000980221BA
:102BC00001F0B8FB044654B126462878C0430007FC
:102BD0001ED4D5F88000B0F5805F0AD00FE0D5F89C
:102BE0009C20D8F8001021F460411143C8F800106F
:102BF000EBE70098022101F09DFB00B10126D5F81A
:102C00008020D9F8001021F440511143C9F8001078
:102C10002878C043C00613D4D5F89400B0F5807F5F
:102C200005D10098022101F085FB00B10126D5F8FD
:102C30009420D8F8001021F440711143C8F8001016
:102C40002868C043000316D4D5F8A00038B1B0F509
:102C5000803F09D0B0F5003F0BD001240AE0019875
:102C6000002101F0D7FA03E00098022101F062FB95
:102C700004468CB126462868C043400322D4D5F8C8
:102C80008400B0F5801F11D0B0F5001F13D0B0F54F
:102C9000401F15D0012414E0D5F8A020D8F800106A
:102CA00021F440311143C8F80010E4E7386840F4DB
:102CB0000030386004E00098012101F03BFB04463D
:102CC0005CB126462868C043C0031CD4286D70B18F
:102CD000B0F5803F10D0012414E0D5F88420D9F855
:102CE000001021F440111143C9F80010EAE73868D8
:102CF00040F40030386004E00198022101F08AFAC3
:102D00000446DCB126462868C043800005D40098FC
:102D1000022101F00FFB00B101262868C0438003A7
:102D20001BD4E86FB8B1B0F5807F10D0B0F5007F4C
:102D300011D0B0F5407F0ED001240DE02A6DDBF8F4
:102D4000001021F480311143CBF80010DBE7386824
:102D500040F4003038607CB326462868C043C00287
:102D600007D42A6FDAF8001021F000411143CAF8A5
:102D700000102868C043800207D4AA6EDAF8001059
:102D800021F080711143CAF800102868C043400048
:102D900009D40748016821F4004101600168D5F8B1
:102DA000B420114301602868C04306E0544402582F
:102DB00010440258CFFFFF001DE007D46A6DDBF816
:102DC000001021F040511143CBF800102868C04397
:102DD000000208D4D5F88820D9F8001021F4400169
:102DE0001143C9F8001028790024C04300F0010005
:102DF000204309D00EE0EA6FD9F8001021F44071A9
:102E00001143C9F80010A8E70198002101F002FA67
:102E100000B106462879C04300F00200204305D1E6
:102E20000198012101F0F6F900B106462879C04366
:102E300000F00400204305D10198022101F0EAF9D5
:102E400000B106462879C04300F00800204305D1B0
:102E50000098002101F06EFA00B106462879C043BF
:102E600000F01000204305D10098012101F062FA22
:102E700000B106462879C04300F02000044304D185
:102E80000098022101F056FA00B916B10120BDE800
:102E9000FE8F0020FBE700002DE9F05F04000F46E5
:102EA0007ED0DFF83882D8F8000000F00F00B8427A
:102EB0000CD2D8F8001021F00F013943C8F80010E7
:102EC000D8F8000000F00F00B84269D12078844D96
:102ED00040070AD52069296801F07001884204D9A9
:102EE000296821F070010143296020787C4E361D4D
:102EF00000070AD56069316801F07001884204D981
:102F0000316821F07001014331602078C0060AD594
:102F1000A069316801F4E061884204D9316821F484
:102F2000E061014331602078DFF8B4B180060BF135
:102F3000080B0CD5E1695846DBF8002002F070025E
:102F4000914204D9026822F070020A43026020789C
:102F500080070AD5E068296801F00F01884204D98A
:102F6000296821F00F01014329602078C0073ED075
:102F70005B49A2682868183920F470601043286003
:102F80006068022818D0032819D00968012819D0D0
:102F9000490700294ADADFF848A1AAF1080A00E047
:102FA00044E0DAF8002022F007020243CAF80020C9
:102FB000FEF742FB814612E009688903E9E70968E8
:102FC0008901E6E7C905E4E7FEF736FBA0EB090156
:102FD00041F28830814202D90320BDE8F09F616848
:102FE000DAF8000000F03800B0EBC10FECD1207827
:102FF00080070AD5E068296801F00F01884204D2F1
:10300000296821F00F0101432960D8F800104046DB
:1030100001F00F01B9420BD9016821F00F013943CA
:103020000160006800F00F00B84201D00120D4E731
:10303000207840070AD52069296801F0700188428C
:1030400004D2296821F0700101432960207800072B
:103050000AD56069316801F07001884204D2316894
:1030600021F07001014331602078C0060AD5A069C3
:10307000316801F4E061884204D2316821F4E061F2
:1030800001433160207880060CD5E1695846DBF8B1
:10309000002002F07002914204D2026822F0700215
:1030A0000A43026000F09AF80E492A682B68C2F3BE
:1030B000032203F00F038A5CC95C02F01F0201F0D7
:1030C0001F01D040084A20FA01F111600749086049
:1030D00007480068BDE8F05FFEF7EABA002000523A
:1030E00018440258447300081C00002418000024EF
:1030F0001000002470B5144C3F220260124A24686C
:103100000832131D114D04F00704446016681C1D9D
:1031100006F470668660166806F00F06C6601268D0
:1031200002F0700202611A6802F0700242611A68CD
:1031300002F4E0628261226802F07002C2612868D3
:1031400000F00F00086070BD1044025800200052CB
:1031500030B500F043F80B4A0B490C4B1568146866
:10316000C5F3032204F00F048A5C095D02F01F021C
:1031700001F01F01D040064A20FA01F119601060E9
:10318000084630BD18440258447300081C0000244F
:103190001800002400B5FFF7DBFF05490968054A60
:1031A000C1F30211515C01F01F01C84000BD0000D5
:1031B0001C4402584473000800B5FFF7C9FF0549D5
:1031C0000968054AC1F30221515C01F01F01C840A2
:1031D00000BD00001C44025844730008454970B506
:1031E00045480968434B103B11F0380208D00111E3
:1031F000082A03D0102A0BD0182A0BD0084670BD1D
:1032000019688906FBD51968C1F3C101C84070BDB2
:103210003A4870BD3749374D18310C1D24350A68BE
:10322000096826682D6802F0030406F00102C1F364
:103230000511C5F3CC0515FB02F200EE102AB8EE1D
:10324000400AE9B32F4ADFED2E0AB7EE001A6CB13F
:10325000DFED2D1A012C01D0022C43D002EE101A02
:103260001068F8EE422A81EEA22A1EE01C68A4062D
:1032700011D51B6801EE901A1168C3F3C103F8EE73
:10328000612AD84001EE900AC1F30800F8EE611AF5
:1032900081EEA22A0BE001EE901ADFED1C2A00BF9E
:1032A000F8EE611A106882EEA12AC0F3080001EE60
:1032B000900AF8EE611A40EE201A31EE810A00E021
:1032C00015E022EE000A1068C0F34620401C00EE14
:1032D000900AF8EE600A80EE201ABCEEC10A10EEE9
:1032E000100A70BD01EE901ADFED092AD8E7002020
:1032F00070BD0000104402580090D00300366E01EB
:1033000000000039304402580024744A0024744CF0
:10331000001BB74B2DE9F05F04007DD0FF4F2078F4
:10332000FE4D1837DFF8F483103DC00748D0D8F8B9
:103330000000396800F03800102815D0182803D193
:1033400001F0030002280FD06068B0F5803F12D072
:1033500010B1B0F5A02F18D0286820F48030286074
:10336000286820F4802009E02868800328D5606858
:103370000028D2D024E0286840F4803028606068BB
:1033800088B1FEF759F9064609E0286840F4802024
:103390002860F0E7FEF750F9801B64287ED8286883
:1033A0008003F7D50CE0FEF747F9064605E000BFBD
:1033B000FEF742F9801B6428F0D828688003F7D410
:1033C0002078800756D5D8F80000DFF85093396888
:1033D00010F03800A9F10C090ED0182801D1880787
:1033E0000AD0E068A8B3296821F0190101432960D7
:1033F000FEF722F9064628E02868400702D5E06873
:1034000000288AD0E168286820F019000843286065
:10341000FEF712F9064606E0D2E000BFFEF70CF90F
:10342000801B0228BAD828684007F7D5217CD9F834
:10343000002022F0FE4242EA0161C9F8001019E0C2
:10344000FEF7FAF8801B0228A8D828684007F7D5AD
:10345000ECE7FFE7286820F001002860FEF7ECF8B1
:10346000064604E0FEF7E8F8801B022896D8286894
:103470004007F7D42078C00646D5D8F80000DFF81A
:103480009C92396800F03800A9F10409082812D08C
:10349000182805D101F00300012800E0CEE00AD091
:1034A000E0690028286820D040F080002860FEF7FE
:1034B000C3F8064615E02868C00502D5E0698028F3
:1034C0007ED194F82010D9F8002022F07C5242EAF4
:1034D0000161C9F8001017E0FEF7AEF8801B022862
:1034E000A0D82868C005F7D5EBE720F08000286059
:1034F000FEF7A2F8064604E0FEF79EF8801B0228BD
:1035000090D82868C005F7D42078000729D58348CB
:103510006169643000298146016811D041F00101E0
:103520000160FEF789F8064605E000BFFEF784F863
:10353000801B022888D8D9F800008007F6D510E053
:1035400021F001010160FEF777F8064605E000BFB3
:10355000FEF772F8801B022870D8D9F800008007A7
:10356000F6D42078800623D5A0690028286810D0DA
:1035700040F480502860FEF75FF8064605E000BF83
:10358000FEF75AF8801B022858D828688004F7D51F
:103590000EE020F480502860FEF74EF8064604E066
:1035A000FEF74AF8801B022848D828688004F7D420
:1035B0002078400751D5DFF86891D9F8001000E075
:1035C00015E141F48071C9F80010FEF735F80646A0
:1035D00005E000BFFEF730F8801B64282ED8D9F82C
:1035E0000000C005F6D54D4EA068603601280AD00F
:1035F00008B1052813D0306820F001003060306831
:1036000020F0040002E0306840F001003060A06863
:1036100041F2883A98B1FEF70FF881460AE0306827
:1036200040F004003060EEE7FEF706F8A0EB090179
:10363000514503D830688007F6D50EE072E0FDF7FB
:10364000FBFF814606E000BFFDF7F6FFA0EB090196
:10365000514567D830688007F6D4606A00287CD06E
:10366000DFF8B8A0D8F800100AF1200A4FF6F87B6E
:103670000AF10408C1F3C2010329AAF104096DD0BB
:103680000228286820F08070286003D0FDF7D4FF5E
:10369000044681E0FDF7D0FF064604E0FDF7CCFFCD
:1036A000801B022875D828688001F7D4E26A40F2AE
:1036B000F331386854F8283F884340EA0210184331
:1036C0003860217B4FF4FE0C22894FF0FE47208AA0
:1036D0004902267D521E401EA1F5007189B2C2F337
:1036E00008021143761E0CEA00400143484607EAEF
:1036F00006621143CAF80010D9F8001021F0010148
:10370000C9F80010D8F80030266A23EA0B0343EA10
:10371000C601C8F80010D9F8001004E0104402589F
:103720000048025835E0A26921F00C011143C9F8A4
:1037300000100168E26921F0020111430160016893
:1037400041F480310160016841F400310160016899
:1037500041F480210160016801E06CE020E041F06B
:1037600001010160286840F080702860FDF764FF67
:10377000044604E0FDF760FF001B022809D8286812
:103780008001F7D557E000BFFDF756FF001B022868
:1037900002D90320BDE8F09F28688001F4D44AE0F4
:1037A00039680128DAF8000021D0A26A01F0030389
:1037B00093421CD1E26AC1F305118A4217D1216BF1
:1037C000C0F30802491E8A4211D1616BC0F3462240
:1037D000491E91420BD1A16BC0F30642491E914292
:1037E00005D1E16BC0F30660491E814201D0012082
:1037F000D0E7A16C4646D8F80000C0F3CC00814267
:1038000019D0D9F800004D4620F00100C9F8000099
:10381000FDF712FF4FEA0007FDF70EFFB842FBD09D
:10382000A26C306820EA0B0040EAC20030602868D1
:1038300040F0010028600020ACE7704770477047F7
:1038400010B5040003D094F83D0010B107E001204A
:1038500010BD002084F83C00204600F022F8022031
:1038600084F83D002068211D00F0C8FE012084F886
:10387000480084F83E0084F83F0084F8400084F853
:10388000410084F8420084F8430084F8440084F83E
:10389000450084F8460084F8470084F83D00002085
:1038A00010BD704790F83D10012901D001207047EC
:1038B0001A4A022180F83D100168CB6843F00103E9
:1038C000CB60006890421AD0B0F1804F17D01449F5
:1038D000884214D01349884211D0134988420ED02F
:1038E000124988420BD01249884208D011498842B7
:1038F00005D01149884202D01049884207D1816819
:103900000F4A1140062906D0B1F5803F03D0016867
:1039100041F00101016000207047000000000140FB
:103920000004004000080040000C0040000401407A
:10393000001800400040014000E0004000E400406A
:103940000700010070472DE9F04104460068002798
:10395000C6680569A90713D5B10711D5FA1E02611A
:1039600001212177206880698007204602D0FFF777
:10397000E9FF04E000F08BF8204600F089F8277793
:10398000680716D5700714D5226802206FF004016D
:10399000116120772068806910F4407F204602D0B2
:1039A000FFF7D0FF04E000F072F8204600F070F856
:1039B0002777280715D5300713D5226804206FF024
:1039C0000801116120772068C0698007204602D075
:1039D000FFF7B8FF04E000F05AF8204600F058F86E
:1039E0002777E80616D5F00614D5226808206FF070
:1039F0001001116120772068C06910F4407F2046D3
:103A000002D0FFF79FFF04E000F041F8204600F0ED
:103A10003FF82777E80708D0F00706D021686FF055
:103A200001000861204600F035F8280601D4A804FA
:103A300008D5300606D521686FF40250086120468B
:103A4000FFF7FCFEE80508D5300606D521686FF4BF
:103A5000807008612046FFF7F0FE680608D5700602
:103A600006D521686FF040000861204600F01CF880
:103A7000A8060AD5B00608D521686FF020000861B5
:103A80002046BDE8F041FFF7DABEBDE8F08170479F
:103A90007047000000680349884201D1FDF7D2BD9C
:103AA0007047000000E00040704730B590F8841087
:103AB000012918D0012280F884202421C0F8881020
:103AC0000022202401680B680D6823F0005325F0C4
:103AD00001050D60426601680B60C0F8884080F8FF
:103AE0008420104630BD022030BD70B5044690F8E9
:103AF000840001281DD0012284F884202420C4F8E9
:103B0000880020680568026822F0010202602068CF
:103B1000826822F060620A438260204600F0E0FD85
:103B20002268202100201560C4F8881084F88400E1
:103B300070BD022070BD70B5044690F88400012865
:103B40001DD0012284F884202420C4F88800206835
:103B50000568026822F0010202602068826822F093
:103B600060420A438260204600F0BAFD22682021AC
:103B700000201560C4F8881084F8840070BD02200D
:103B800070BD10B5040003D0D4F8880010B107E070
:103B9000012010BD002084F88400204600F026F8A3
:103BA0002420C4F888002068016821F00101016028
:103BB000A06A10B1204600F0B5FD204600F096FE48
:103BC0000128E6D02068416821F4904141602068D6
:103BD000816821F02A0181602068016841F00101BB
:103BE00001602046BDE8104000F000BE2DE9F04F16
:103BF000B5B0064614212EA8FCF701FDB821684691
:103C0000FCF7FDFC02246F4A306800216B4D67020F
:103C1000DFF8ACB190423FD10022884602236846CB
:103C20001D91CDE90032FEF799FC08B1FCF78FFE3B
:103C300062480830016841F080410160006800F08E
:103C400080403390286840F01000286028682EAA31
:103C50000721454600F0100033904FF4C07082E811
:103C60003100CDE931812EA95846FDF7D7FB564CDE
:103C70004F21564884E82300C4E903576561204674
:103C8000A561E5612562656290E000BFC6F88040ED
:103C9000A66335B0BDE8F08F4D4A4FF0040ADFF857
:103CA000349190423BD100201E9101228846CDE9FB
:103CB00000206846FEF752FC08B1FCF748FED9F830
:103CC000001041F01001C9F80010D9F8000000F010
:103CD00010003390286840F00200286028682EAA5F
:103CE0004FF44041454600F0020082E83200CDE941
:103CF00032A039482EA9CDF8C480FDF78FFB324C95
:103D0000324878341830292184E82300C4E9035765
:103D100065612046A561E5612562656246E02F4A3E
:103D20009042B6D100221E91012388466846CDE913
:103D30000032FEF713FC08B1FCF709FED9F80010B9
:103D400041F08001C9F80010D9F8000000F08000AF
:103D50003390286840F01000286028682EA9454656
:103D6000D84600F010003390504681E83100CDE98C
:103D7000315A5846FDF752FB2EAA08200B2182E843
:103D80003100CDE931512EA94046FDF747FB0E4CDD
:103D900076210E48F034303084E82300C4E903571C
:103DA00065612046A561E56125626562FDF746F91A
:103DB00000283FF46BAFFCF7CAFD67E7E044025808
:103DC0000010025800780040480300241000024010
:103DD00000100140F044025800040258001C014049
:103DE000FEE70000F0B500230A251C4630263727E1
:103DF00011E000BFB5EB107F02D906EB107C01E0AB
:103E000007EB107C01F813C001EB430C00015B1CB5
:103E10008CF80140DBB29342ECD3F0BD114808B5F9
:103E2000016841F00101016000680022052100F0F5
:103E3000010000900B20FDF79DFC0B20FDF78CFC92
:103E4000002205210C20FDF795FC0C20FDF784FCD9
:103E5000002205210D20FDF78DFCBDE808400D2056
:103E6000FDF77ABCD844025810B590B0114914221D
:103E70006846FCF792FB0021684602F033FD0E4CC9
:103E800014220C491431206005A8FCF786FB0021A0
:103E900005A802F027FD0749142260600AA828310E
:103EA000FCF77BFB00210AA802F01CFDA06010B00B
:103EB00010BD0000D872000800000024114808B5A9
:103EC000016841F010010160016801F010010091EA
:103ED000016841F080010160016801F080010091FA
:103EE000016841F002010160016801F002010091E6
:103EF000016841F001010160006800F001000090DC
:103F000008BD0000E04402581848002110B5164CC6
:103F10000C224FF4E1330460C0E90131C160C0E913
:103F200004128161C161016241628162FFF729FE71
:103F300008B1FCF70CFD0D480021FFF7FCFD08B1AE
:103F4000FCF705FD09480021FFF7CFFD08B1FCF79C
:103F5000FEFC0648FFF7A9FD002803D0BDE810408D
:103F6000FCF7F5BC10BD0000007800408C01002477
:103F70001848002110B5164C0C224FF4E1330460B0
:103F8000C0E90131C160C0E904128161C16101620F
:103F900041628162FFF7F5FD08B1FCF7D8FC0D48DE
:103FA0000021FFF7C8FD08B1FCF7D1FC094800214A
:103FB000FFF79BFD08B1FCF7CAFC0648FFF775FD4B
:103FC000002803D0BDE81040FCF7C1BC10BD0000C4
:103FD000001C0140B40200241848002110B5164C02
:103FE0000C224FF4E1330460C0E90131C160C0E943
:103FF00004128161C161016241628162FFF7C1FD0A
:1040000008B1FCF7A4FC0D480021FFF794FD08B1AE
:10401000FCF79DFC09480021FFF767FD08B1FCF79C
:1040200096FC0648FFF741FD002803D0BDE810408C
:10403000FCF78DBC10BD00000010014020020024E0
:1040400010490122104810B501F094FA08B1FCF7AC
:104050007EFC0E490C4801F0ACFC08B1FCF777FC83
:104060000B49094801F048F808B1FCF770FC064814
:1040700001F024FD08B1FCF76AFCBDE81040FEF732
:104080000FB9000088000024EC7D002454010024B6
:10409000E8000024FEE7FEE70148FDF7FBBC000056
:1040A000E89400242DE9F041044680790D4620274C
:1040B000236801284FF4004604F29C4203EB4511AB
:1040C000D3F840C0D1F8080B09D0DFF89CE0F445E4
:1040D0003AD1020433D500BFC1F8086B40E0234B4E
:1040E0005FEA007E04D59C453AD90004F4D437E059
:1040F0005FEA806E02D5C1F8087B31E010F0280F2E
:104100002ED19C4501D90004E6D4D1F8101B05EB53
:10411000C50004EB8000C1F31201D0F87432A3EBA8
:104120000101C0F8681200F51570ADB903691BB143
:10413000C2681144C1600FE0206801210AE08006D6
:104140000AD5C1F8087B07E035B9D4F8640218B97C
:104150000021184602F032F82046E9B2FDF785FB4F
:104160000020BDE8F08100000A31544F0A30544F5E
:104170002DE9F84F0E460568814601EBC60100EBBC
:104180008104D4E909201434904202D90120BDE809
:10419000F88FA168101A814200D20846C01C05EBB6
:1041A000461887081BE000BFA268A0EB010A524531
:1041B00000D2924699F806100AF1030000911FFA06
:1041C0008AF3E16887082846F2B202F037FBE1681B
:1041D00001EB0A00E060616901EB0A006061D8F858
:1041E000180980B2B84205D3D4E90401814201D252
:1041F0000028D9D1D4E90401884208D8D5F8341868
:10420000012006F00F0290408143C5F834180020C9
:10421000BDE700002DE9F047454D044689464FF0C3
:10422000000A2868C04380070AD0414E283E306803
:1042300020F080603060FDF7FFF90746B04608E0E7
:104240000120BDE8F08700BFFDF7F6F9C01B02288A
:1042500067D8D8F800000001F6D4206829684FF428
:10426000FE0721F47C313E0241EA00302860207ACA
:10427000A389B4F804C040022D4D2D495B1E227C59
:10428000ACF1010C1035091DA0F5007080B2521E72
:10429000CCF3080C07EA034340EA0C00184306EA93
:1042A0000262104328600868626920F0C000104371
:1042B00008600A68A06922F0200202430A60281DF3
:1042C0000A6822F010020A6002684FF6F873E46987
:1042D0009A4342EAC40202600868B9F1000F40F054
:1042E00010020A6011D00868B9F1010F11D040F432
:1042F00000100860D8F80000444640F08060C8F81C
:104300000000FDF799F905460DE0086840F400202B
:10431000EFE740F48010ECE7FDF78EF9401B022830
:1043200001D903208DE720680001F5D5504688E7C4
:10433000284402582DE9F047454D044689464FF080
:10434000000A2868C04380070AD0414E283E3068E2
:1043500020F080503060FDF76FF90746B04608E066
:104360000120BDE8F08700BFFDF766F9C01B0228F9
:1043700067D8D8F800008000F6D4208829684FF468
:10438000FE0721F07C713E0241EA00502860207A4D
:10439000A389B4F804C040022D4D2D495B1E227C38
:1043A000ACF1010C1835091DA0F5007080B2521E49
:1043B000CCF3080C07EA034340EA0C00184306EA72
:1043C0000262104328600868626920F4406010436C
:1043D00008600A68A06922F4007202430A60281D7E
:1043E0000A6822F480720A6002684FF6F873E46982
:1043F0009A4342EAC40202600868B9F1000F40F42F
:1044000080720A6011D00868B9F1010F11D040F034
:1044100080700860D8F80000444640F08050C8F82A
:104420000000FDF709F905460DE0086840F480003A
:10443000EFE740F40000ECE7FDF7FEF8401B022830
:1044400001D903208DE720688000F5D5504688E724
:10445000284402580178407841EA00207047FFF76D
:10446000EFFD012002F032FAFBE70000502010B50A
:1044700080F31188BFF34F8FBFF36F8F02F05EFEA2
:1044800018B104494FF080500860002080F3118873
:1044900010BD000004ED00E070B59CB04C216846F2
:1044A000FCF7ADF8202113A8FCF7A9F80220FDF7CE
:1044B000CDFE1E48016821F44041016001680024DE
:1044C00001F440411B9101688904FCD502200A9047
:1044D00028230990C20301210D910425CDE9001282
:1044E000CDE90B030C261294CDE90E50CDE91064F2
:1044F0006846FEF70FFF08B172B6FEE740201A903B
:1045000008230501CDE9163013ABCDE918053F218D
:10451000032283E8160013A81146FEF7BDFC00280D
:1045200001D072B6FEE71CB070BD000018480258FA
:104530002748F0B5274A016841F47001016010680E
:1045400000F00F00072804D2106820F00F00C01DF3
:10455000106021490020204C10340B681F4D43F09F
:1045600001030B6020600B682B400B60136803F0A5
:104570000F03072B04D9136823F00F03DB1D13600F
:10458000154C174A1834174B261D371D2060124C46
:10459000154D28343060261D3860371D23603B1DC3
:1045A00035601C1D3A60251D2E1D1860331D2260CC
:1045B0002860326018600A6843F2D204064B0B4D43
:1045C00022F4802260330A6018602C60F0BD000085
:1045D00088ED00E000200052004402587FEDF6EA2A
:1045E00080020101000202020000FF0100400052AF
:1045F0000148FFF7A8B90000B00400242DE9F047F6
:104600002D4B4FF0804A2D4D026898422C4E2D4F75
:104610002D4C09D0504507D0A84205D0B04203D058
:10462000B84201D0A04205D1D1F804C022F07002F6
:104630004CEA0202DFF894C0DFF894809842DFF879
:10464000949015D0504513D0A84211D0B0420FD04D
:10465000B8420DD0A0420BD0604509D0404507D0EC
:10466000484505D01C4DA84202D01C4DA84203D19C
:10467000CD6822F440722A434D6922F080022A4319
:10468000026098428A68C2620A68826207D0A042C9
:1046900005D0604503D0404501D0484501D10969A6
:1046A0000163012141610169C90703D0016921F05A
:1046B00001010161BDE8F0870000014000040040F5
:1046C00000080040000C0040000401400040014090
:1046D000004401400048014000E0004000E4004088
:1046E00030B5416EB9B101680D4B03F108048A6819
:1046F0008968C2F34262490F5D5C615C2D01B5FBC4
:10470000F1F1A0F86A10995CA25C0901B1FBF2F129
:10471000A0F8681030BD0121A0F86A10F8E7000089
:104720003473000890F82810090706D50168836BD8
:104730004A6822F400421A434A6090F82810C907D8
:1047400006D00168C36A4A6822F400321A434A60FC
:1047500090F82810890706D50168036B4A6822F48F
:1047600080321A434A6090F82810490706D501683C
:10477000436B4A6822F480221A434A6090F828105A
:10478000C90606D50168C36B8A6822F480521A43B1
:104790008A6090F82810890606D50168036C8A683B
:1047A00022F400521A438A6090F82810490611D565
:1047B0000168436C4A6822F480121A434A60416CD3
:1047C000B1F5801F06D10168836C4A6822F4C002EB
:1047D0001A434A6090F82810090606D50168C26C91
:1047E000486820F400201043486070472DE9F843E2
:1047F00000250446C0F89050FCF71EFF8046206854
:1048000020266FF07E470068000713D5002243463C
:1048100031042046009700F057FA58B1216851E85A
:10482000000F20F0800041E80002002AF6D1C4F811
:10483000886021E020680068400722D500224346B6
:104840004FF480012046009700F03EFAC8B120687E
:1048500050E8001F21F4907140E80012002AF6D1C0
:104860002068083050E8001F21F0010140E80012E4
:10487000002AF5D1C4F88C60032084F88450BDE888
:10488000F883C4F88860C4F88C60E566256700206A
:1048900084F88450F3E7000010B5026852E8001F66
:1048A00021F4907142E80013002BF6D10E4B026800
:1048B000083252E8001F194042E80014002CF6D1DB
:1048C000C16E012908D1026852E8001F21F01001D1
:1048D00042E80013002BF6D100212022C0F88C20E2
:1048E000C166416710BD0000FEFFFFEF2DE9F043F8
:1048F00004468068E24E87B0E24B2168D4E9042781
:10490000D4F81CC010430A68002547EA0C07384356
:10491000324002430A602068E268416821F4405155
:10492000114341602268A1699A4201D0206A014383
:104930009668DFF854C3D54FD54806EA0C060E43F7
:1049400096602168666ACA6A22F00F023243CA6220
:104950002268BA420ED1006800F0380018286FD0E3
:104960007ADCB8B308286CD010286BD18BE02828EB
:1049700068D18EE0C7498A4209D1006800F007007B
:1049800006285FD2DFE800F0507D7F818385C24931
:104990008A4209D1006800F0070006287BD2DFE8D0
:1049A00000F0437072747678BC498A4209D100687D
:1049B00000F0070006286ED2DFE800F03663656776
:1049C000696BB7498A420BD1006800F007000628DE
:1049D00061D200E043E0DFE800F0275456585A5C0B
:1049E000B0498A4206D1006800F0380018284CD03F
:1049F000B7DD31E0AC498A4209D1006800F0070018
:104A0000062848D2DFE800F0103D3F414345A74962
:104A10008A420BD1006800F0070006283BD2DFE88D
:104A200000F0033032343638002035E0A0498A42A5
:104A300009D1006800F03800182826D091DD0BE07D
:104A400023E01EE027E09B498A420AD1006800F07B
:104A50003800182819D084DD202888D11CE00120D6
:104A60001AE09A4217D18A48001D006800F007003A
:104A7000062810D2DFE800F0030507090B0D02201D
:104A80000AE0042008E0082006E0102004E02020CE
:104A900002E0402000E080208749DFF820829A422F
:104AA000874A4FF400434FEA21174FF000064ED1DA
:104AB00010281AD006DC022809D004280BD00828B8
:104AC0007ED10DE020283ED0402879D13DE0FDF791
:104AD000EFFB014610E06846FDF7FCFB01990BE097
:104AE00003A8FDF799FC049906E01068800605D537
:104AF0001068C0F3C100C140002970D0606A6768C7
:104B000038F8102007EB4703B1FBF2F0834257D887
:104B1000B0EB073F54D8002308461946FBF7C6FC04
:104B200002467808130E120243EA012110183A4691
:104B300071410023FBF7BAFC624AA0F54071914233
:104B40003ED821688FE03946D8E71946D6E7D4F831
:104B50001CC04FF6EF799C4546D1082819D005DCDA
:104B600058B101280CD0042875D10DE0102815D0BB
:104B7000202835D040286ED134E0FEF70BFB01E051
:104B8000FEF71AFB014610E06846FDF7A3FB01990A
:104B90000BE003A8FDF740FC049906E010688006CE
:104BA00004D51068C0F3C100C140C1B1636A606838
:104BB00038F81330B1FBF3F1490001EB500100E08C
:104BC00049E0B1FBF0F0A0F11001494543D84FF6A0
:104BD000F0732168C0F342021840104343E043E001
:104BE0003946E3E71946E1E7082819D005DC58B152
:104BF00001280CD004282ED10DE0102815D0202833
:104C00002BD0402827D12AE0FEF7C4FA01E0FEF7B6
:104C1000D3FA014610E06846FDF75CFB01990BE012
:104C200003A8FDF7F9FB049906E01068800604D597
:104C30001068C0F3C100C140B1B1636A606838F860
:104C40001330B1FBF3F101EB5001B1FBF0F0A0F137
:104C50001001494505D9012506E03946EDE7194619
:104C6000EBE7216880B2C8600120A4F86A00A4F8CC
:104C7000680028466667A66707B0BDE8F0830000B5
:104C8000F369FFCF000C0058FFF4FF110010014042
:104C9000544402580044004000480040004C00408A
:104CA000005000400014014000780040007C0040AB
:104CB00000180140001C01400090D0031C73000844
:104CC00000440258FFFC0F002DE9F04799461746B3
:104CD0000D460446089E4FF0000833E0701C31D0AA
:104CE000FCF7AAFCA0EB0900B04218D8BEB12068BE
:104CF0000168490726D5802D24D0402D22D0C169D6
:104D0000C94309070DD4082505622046FFF7C4FDF5
:104D1000C4F89050012084F88480BDE8F087032017
:104D2000FBE7C069C04300050CD421684FF4006064
:104D300008622046FFF7B0FD2021C4F8901084F8E7
:104D40008480ECE72068C06935EA000004D00020C8
:104D5000B842C3D00020E0E70120F9E72DE9F04197
:104D60000C46D0F8D412D0F8C83200EB8101D1F84B
:104D7000C01229B304F00F02002702EB820500EBFA
:104D80008506B5694DB102EBC20203EB8202D2691E
:104D9000B5FBF2F302FB1352A2B1C1F81472D0F8C2
:104DA000D42200EB8200D0F8C40203692BB1D1F801
:104DB000080201F50471224698470020BDE8F08101
:104DC0000320FBE7002321461A46B76100F0D3FD1C
:104DD000F3E770B50546D0F8D40205EB8000D0F8B3
:104DE000C04294B1284600F0A0FCC4F80C02D5F8EB
:104DF000D40205EB8000D0F8C412D4F80402CA68CB
:104E000004F503719047002070BD032070BD0000C1
:104E100070B5224D0446297800F0C8FB287800269A
:104E200000F00F0000EB800004EB80008684204639
:104E3000697800F0BBFB687800F00F0000EB8000A1
:104E400004EB8000A0F864612046A97800F0AEFB76
:104E5000A87800F00F0000EB800004EB800086844F
:104E6000C684D4F8D40204EB8000D0F8C01299B103
:104E7000D0F8C40240688047D4F8D40204EB800024
:104E8000D0F8C00200F09FFFD4F8D40204EB8000F9
:104E9000C0F8C062C4F8BC62002070BD00010024EC
:104EA00010B5D0F8D41200EB8100D0F8C04284B124
:104EB000D0F8C41259B194F80002FF2807D08B68CB
:104EC000214694F801229847FF2084F80002002030
:104ED00010BD032010BD00000A210180004870476A
:104EE0000401002470B5822106460D4800F06AFADC
:104EF000012105460A4800F065FA81210446084868
:104F000000F060FA0DB11021A9714FF0400104B119
:104F1000A18000B1818043203080014870BD000035
:104F20001001002470B5822106460D4800F04AFAAF
:104F3000012105460A4800F045FA81210446084847
:104F400000F040FA0DB11021A9714FF4007104B1C5
:104F5000A18000B1818043203080014870BD0000F5
:104F60001001002470B5822106460D4800F02AFA8F
:104F7000012105460A4800F025FA81210446084827
:104F800000F020FA0DB11021A9714FF0400104B1D9
:104F9000A18000B1818043203080014870BD0000B5
:104FA000100100242DE9F0474FF407750446284608
:104FB00000F00AFF06004FF0000965D02946FBF714
:104FC0001EFBD4F8D40201273C4D4FF4007A4FF079
:104FD000100804EB8000C0F8C062C4F8BC62207CFA
:104FE000F0B3297840230222204600F00EFC2878F6
:104FF000402300F00F0000EB800004EB800087846A
:1050000002226978204600F000FC69780823032218
:10501000204601F00F0101EB810104EB8101A1F8B1
:105020006471A97801F00F0101EB810104EB8101AA
:10503000A1F82680A97800F0E8FBA978C84601F01D
:105040000F0101EB810104EB81018F84C6F804920A
:10505000D4F8D40204EB8000D0F8C402006800E069
:105060001AE006F501768047C6F81080C6F814806D
:1050700032687AB1207CF8B140236978204600F08C
:10508000D0FB0020BDE8F087D4F8D41204EB8101F6
:10509000C1F8C0920220F5E7297802225346204643
:1050A00000F0B3FB2878534600F00F0000EB8000BF
:1050B00004EB80008784A3E75346DEE70001002469
:1050C00010B5D0F8D41200EB8101D1F8C01259B15B
:1050D000027C084C002AD1F8042207D040236178D2
:1050E00000F09FFB002010BD032010BD4FF40073A3
:1050F000F5E700000001002439B1D0F8D42200EB1C
:105100008200C0F8C4120020704703207047D0F816
:10511000D42200EB8200D0F8C00218B1C0F804120B
:105120000020704703207047D0F8D43200EB830092
:10513000D0F8C00228B1C0F81022C0F80812002030
:105140007047032070472DE9FC410646D0F8D40291
:105150000C46002106EB80000D46D0F8C0728DF899
:105160000010ADF8041037B1217811F060022CD096
:10517000202A48D102E00320BDE8FC81E288E2B1A8
:1051800009060BD5D0F8C402394683686078984781
:10519000E288072A00D9072239462CE0607887F890
:1051A0000002E088402800D340203946C2B2304691
:1051B00087F8012200F057F82AE0D0F8C402002254
:1051C000214683686078984722E0607830B10128F2
:1051D0001ED00A2809D00B2815D110E096F89C02A1
:1051E000032810D1022201A905E096F89C020328A9
:1051F00009D101226946304600F04FF808E096F8E0
:105200009C02032804D02146304600F021F80325F3
:105210002846B1E710B5D0F8B8220024526890476C
:1052200000B10324204610BD0020704700207047C5
:1052300013460A46002110B500F0F3FA002010BD15
:1052400013460A46002110B500F095FB002010BD62
:1052500010B58021044600F06FFB2046BDE81040E9
:10526000002100F069BB10B5C0F858210323C0F835
:105270009432C0F85C2113460A46002100F0D1FAAE
:10528000002010BD10B50521C0F8941200231A4665
:10529000194600F0C6FA002010BD10B58261022345
:1052A000C0F89432C26113460A46002100F063FB45
:1052B000002010BD10B50421C0F8941200231A4636
:1052C000194600F058FB002010BDF8B504460D4605
:1052D0000020ADF800004888010A062947D006DC06
:1052E00001290FD0022912D0032962D11DE007291C
:1052F00046D00F295DD1D4F8B402C26920E06946D6
:1053000090473BE0D4F8B412207C0A68F7E7207C91
:1053100002260028D4F8B80205D0C16A684688473A
:105320000146467036E0816AF8E7C0B2062840D2EE
:10533000DFE800F003090D111519D4F8B402426832
:10534000B2B3207CDBE7D4F8B4028268F8E7D4F883
:10535000B402C268F4E7D4F8B4020269F0E7D4F802
:10536000B4024269ECE7D4F8B4028269E8E7207C31
:10537000F0B9D4F8B802416B68468847014609E0A5
:10538000207CA8B9D4F8B802016B6846884701466A
:1053900007204870EA888AB1BDF8000040B1824217
:1053A00000D902462046ADF80020FFF776FFF8BD91
:1053B000FFE729462046FFF74BFFF8E72046FFF7B7
:1053C00079FFF4E778B542880D4601780026044657
:1053D0008A4212D9ADF800100AE0694600F019F8C7
:1053E0004178052904D181780646A94205D00026D6
:1053F0006188BDF800209142EFD8304678BD002189
:1054000002E0491C401CC9B20278002AF9D10846C2
:1054100070470A8803781A440A8001780844704764
:1054200070B5002816460D4620D00446FFF7E7FF6A
:1054300002220146100202EB4101814204D82046BB
:10544000FFF7DDFF4000801C30803378032102200D
:105450002B700022697006E0431C2954D8B2411C0D
:10546000641C2A54C8B221780029F5D170BD01000E
:105470004FF0000004D0012901D0022901D00320FF
:10548000704701207047000004A00A46024910B589
:10549000FFF7C6FF004810BDC880002443444320E6
:1054A000436F6E66696700001220088000487047ED
:1054B000AC00002404A00A46024910B5FFF7B0FF73
:1054C000004810BDC880002443444320496E7465E1
:1054D0007266616365000000042008800048704720
:1054E000A800002404A00A46024910B5FFF798FF5F
:1054F000004810BDC880002453544D6963726F6525
:105500006C656374726F6E696373000004A00A4671
:10551000024910B5FFF784FF004810BDC880002481
:1055200053544D3332205669727475616C20436F49
:105530006D506F727400000010B51A2008800B487F
:105540000A490830021F096800681468081809D061
:1055500007490822FEF746FC05490422204610317F
:10556000FEF740FC0248801E10BD000000E8F11F5D
:10557000CE00002478B10023C0F8B832C0F8C4329D
:10558000C0F8D03209B1C0F8B4120121027080F81D
:105590009C1200F0CFB80320704710B5D0F8C802B5
:1055A000FCF7A5F9BDE81040FFF761BF10B5D0F8D2
:1055B000C802FCF777F9BDE81040FFF758BF2DE9A6
:1055C000F041174604464FF0000521B194F89C02C3
:1055D000032842D04CE0D4F8941204F114000229BC
:1055E00035D1D0E902639E4206D9F21A394682606B
:1055F0002046FFF725FE0FE0B34214D140689842E1
:1056000011D3D4F8981288420DD2002220461146B8
:10561000FFF716FEC4F8985200231A461946204692
:1056200000F0FFF813E094F89C02032808D1D4F8A6
:10563000B802C16821B1C4F8D452C1682046884775
:105640008021204600F078F92046FFF71BFE94F8F1
:10565000A00268B184F8A0520AE0D4F8B802426906
:1056600032B1C4F8D452426920469047002800D194
:105670000020BDE8F08170B5134604464FF00002EB
:1056800021B194F89C02032830D03AE0D4F8941267
:1056900004F5AA70032934D1D0E902518D420AD908
:1056A0006A1A82600846824200D3024619462046A2
:1056B000FFF7BEFD25E094F8AA0210F01F0003D00A
:1056C000012802D0022800D0002294F89C0203286E
:1056D00008D1D4F8B802016921B1C4F8D422016913
:1056E000204688472046FFF7E5FD0AE0D4F8B802D7
:1056F000836933B1C4F8D4228269204690470028D8
:1057000000D1002070BD0020704710B5D0F8B8124D
:10571000012280F89C22002429B103794A68D9B279
:10572000904700B10324204610BDD0F8C802FCF712
:105730000BB9000070B50178012929D11549092557
:10574000154C02230022C1F8E004C0F8C812084634
:105750000C600D71CB718A714B728A72CA720A73B6
:105760008A73CA730A74FCF767FC08B1FBF7EFF899
:1057700008484FF40071FCF744F8064880220021E5
:10578000FCF743F8034801214FF4BA72FCF73DF8E7
:10579000002070BDE894002400000440D0F8C82226
:1057A00001F07F000B0600EBC00002EB800001D58A
:1057B000807D704790F85602704710B5D0F8D4221B
:1057C00000EB8202D2F8B82222B190F89C32032B6F
:1057D00002D004E0032010BD126A02B190470020FD
:1057E00010BD10B5D0F8D42200EB8202D2F8B82256
:1057F00022B190F89C32032B02D004E0032010BDAC
:10580000526A02B19047002010BD10B51C46D0F876
:10581000C80213462246FCF7A0F8BDE81040FFF787
:1058200026BE10B5D0F8C802FCF7C6F8BDE8104097
:10583000FFF71DBE2DE9F041044601250020D4F8F4
:10584000B812064684F89C52C4F894026060C4F80A
:10585000A40284F8A00231B14A6822B10021204696
:10586000904700B103262046002240231146FFF74F
:10587000CCFF4027A4F8645100223B4680212046FB
:10588000C4F86071FFF7C1FFA58430462762BDE808
:10589000F08190F89C12042903D190F89D1280F8B1
:1058A0009C120020704710B590F89C12032905D176
:1058B000D0F8B81211B1C96901B18847002010BDF4
:1058C00001740020704710B5D0F8C802FCF76AFCDC
:1058D000BDE81040FFF7CBBD70B5044600F2AA202A
:1058E000054600F051F894F8AA020123B4F8B0126A
:1058F00010F01F02C4F89432C4F898120AD0012A9A
:105900000ED0022A12D000F080012046BDE870407F
:1059100000F012B829462046BDE8704000F0D0B82B
:1059200029462046BDE8704000F013BA29462046BB
:10593000BDE8704000F05BB910B5D0F8C802FCF7C4
:1059400055F8BDE81040FFF792BD10B5D0F8C80279
:10595000FCF742FCBDE81040FFF789BD90F89C12AF
:10596000042903D090F89C1280F89D12042180F83D
:105970009C120020704710B5D0F8C802FCF76FF8F1
:10598000BDE81040FFF773BD70B5054608788C1C64
:105990002870487868702046FEF75CFDA41C68807B
:1059A0002046FEF757FDA880A01CFEF753FDE880B7
:1059B00070BD38B504460020ADF80000A1B1C4F8B0
:1059C000B812D4F8D40204EB8000D0F8B802C16A4F
:1059D00019B168468847C4F8D002D4F8D802401CF0
:1059E000C4F8D802002038BD032038BDD0F8B83242
:1059F00002460020002B02D01B6810461847704753
:105A00002DE9F0412C4E0446887800258846C1B225
:105A10000129317006D941462046FFF719FC0320C1
:105A2000BDE8F08194F89C02022702280CD00328DC
:105A30001DD041462046FFF70BFC31782046FFF78A
:105A4000E9FB03252846EBE789B320466160FFF7B1
:105A5000CDFF050004D041462046FFF7F9FB1DE0CD
:105A60002046FFF727FC032084F89C02EAE7C1B137
:105A7000606888421BD0C1B22046FFF7CBFB31786B
:105A800020466160FFF7B2FF050010D04146204676
:105A9000FFF7DEFB21792046FFF7BCFB84F89C7200
:105AA000D0E7616084F89C722046FFF7B3FB204684
:105AB000FFF700FCC6E70000FC000024FFF745BF2D
:105AC0002DE9F0410A784FF0000512F060020CD089
:105AD000202A01D0402A7DD1D0F8D42200EB8202C6
